:1000000009C019C018C017C016C015C014C013C04D
:1000100012C011C011241FBECFE9CDBF10E0A0E671
:10002000B0E0E8E4F1E002C005900D92AA36B10715
:10003000D9F725D087C0E4CFFC01DB018D919C91DD
:100040001197009731F001978D939C9380E090E099
:100050000895B39913C08AE090E08D939C938081BA
:100060009181039729F481E090E091838083089542
:1000700083E090E09183808381E090E00895CF93C6
:10008000DF93CDB7DD27C550CDBF83E087BB8CEFB5
:1000900088BB83EA8FBD81E083BF16BE8FEF89BD29
:1000A0001C821B821A82198201E010E021E0CC241C
:1000B000C394D12CBB24BA9486B7820F86BF86B76F
:1000C000809589BDE12CF12CBE016F5F7F4FCE0181
:1000D00003962D83B1DF2D81892B59F08B819C8173
:1000E00081309105E9F08330910531F1892B21F7B9
:1000F0000DC08FE496E40197F1F700C000009FEF78
:10010000E91AF90AE016F106FCF2E8CF86B78D3F4E
:1001100020F401E010E021E0CFCFDC82CB8209C0E7
:1001200086B7833020F001E010E02FEFC5CF1C82AE
:100130001B8204E610E0C0CFB6BE19BC01E010E09F
:0801400020E0BACFF894FFCFD4
:0A01480064000A000000FF0001003F
:00000001FF
